{
  "contractName": "RubyPool",
  "abi": [
    {
      "anonymous": false,
      "inputs": [
        {
          "indexed": true,
          "internalType": "address",
          "name": "owner",
          "type": "address"
        },
        {
          "indexed": true,
          "internalType": "address",
          "name": "spender",
          "type": "address"
        },
        {
          "indexed": false,
          "internalType": "uint256",
          "name": "value",
          "type": "uint256"
        }
      ],
      "name": "Approval",
      "type": "event"
    },
    {
      "anonymous": false,
      "inputs": [
        {
          "indexed": false,
          "internalType": "uint256",
          "name": "rubyRewardRate",
          "type": "uint256"
        }
      ],
      "name": "ChangeRubyRewardRate",
      "type": "event"
    },
    {
      "anonymous": false,
      "inputs": [
        {
          "indexed": false,
          "internalType": "address",
          "name": "account",
          "type": "address"
        },
        {
          "indexed": false,
          "internalType": "uint256",
          "name": "amount",
          "type": "uint256"
        }
      ],
      "name": "Deposit",
      "type": "event"
    },
    {
      "anonymous": false,
      "inputs": [
        {
          "indexed": true,
          "internalType": "address",
          "name": "previousOwner",
          "type": "address"
        },
        {
          "indexed": true,
          "internalType": "address",
          "name": "newOwner",
          "type": "address"
        }
      ],
      "name": "OwnershipTransferred",
      "type": "event"
    },
    {
      "anonymous": false,
      "inputs": [
        {
          "indexed": true,
          "internalType": "address",
          "name": "from",
          "type": "address"
        },
        {
          "indexed": true,
          "internalType": "address",
          "name": "to",
          "type": "address"
        },
        {
          "indexed": false,
          "internalType": "uint256",
          "name": "value",
          "type": "uint256"
        }
      ],
      "name": "Transfer",
      "type": "event"
    },
    {
      "anonymous": false,
      "inputs": [
        {
          "indexed": false,
          "internalType": "address",
          "name": "account",
          "type": "address"
        },
        {
          "indexed": false,
          "internalType": "uint256",
          "name": "amount",
          "type": "uint256"
        }
      ],
      "name": "Withdraw",
      "type": "event"
    },
    {
      "inputs": [],
      "name": "DCX",
      "outputs": [
        {
          "internalType": "contract IERC20",
          "name": "",
          "type": "address"
        }
      ],
      "stateMutability": "view",
      "type": "function"
    },
    {
      "inputs": [],
      "name": "DCXM",
      "outputs": [
        {
          "internalType": "contract DCXManagement",
          "name": "",
          "type": "address"
        }
      ],
      "stateMutability": "view",
      "type": "function"
    },
    {
      "inputs": [
        {
          "internalType": "address",
          "name": "",
          "type": "address"
        }
      ],
      "name": "DCXrewards",
      "outputs": [
        {
          "internalType": "uint256",
          "name": "",
          "type": "uint256"
        }
      ],
      "stateMutability": "view",
      "type": "function"
    },
    {
      "inputs": [],
      "name": "DURATIONDAY",
      "outputs": [
        {
          "internalType": "uint256",
          "name": "",
          "type": "uint256"
        }
      ],
      "stateMutability": "view",
      "type": "function"
    },
    {
      "inputs": [],
      "name": "DURATIONWEEK",
      "outputs": [
        {
          "internalType": "uint256",
          "name": "",
          "type": "uint256"
        }
      ],
      "stateMutability": "view",
      "type": "function"
    },
    {
      "inputs": [
        {
          "internalType": "address",
          "name": "",
          "type": "address"
        }
      ],
      "name": "_balances",
      "outputs": [
        {
          "internalType": "uint256",
          "name": "",
          "type": "uint256"
        }
      ],
      "stateMutability": "view",
      "type": "function"
    },
    {
      "inputs": [],
      "name": "_totalSupply",
      "outputs": [
        {
          "internalType": "uint256",
          "name": "",
          "type": "uint256"
        }
      ],
      "stateMutability": "view",
      "type": "function"
    },
    {
      "inputs": [
        {
          "internalType": "address",
          "name": "_user",
          "type": "address"
        }
      ],
      "name": "addWhiteList",
      "outputs": [],
      "stateMutability": "nonpayable",
      "type": "function"
    },
    {
      "inputs": [
        {
          "internalType": "address",
          "name": "owner",
          "type": "address"
        },
        {
          "internalType": "address",
          "name": "spender",
          "type": "address"
        }
      ],
      "name": "allowance",
      "outputs": [
        {
          "internalType": "uint256",
          "name": "",
          "type": "uint256"
        }
      ],
      "stateMutability": "view",
      "type": "function"
    },
    {
      "inputs": [
        {
          "internalType": "address",
          "name": "spender",
          "type": "address"
        },
        {
          "internalType": "uint256",
          "name": "amount",
          "type": "uint256"
        }
      ],
      "name": "approve",
      "outputs": [
        {
          "internalType": "bool",
          "name": "",
          "type": "bool"
        }
      ],
      "stateMutability": "nonpayable",
      "type": "function"
    },
    {
      "inputs": [
        {
          "internalType": "address",
          "name": "account",
          "type": "address"
        }
      ],
      "name": "balanceOf",
      "outputs": [
        {
          "internalType": "uint256",
          "name": "",
          "type": "uint256"
        }
      ],
      "stateMutability": "view",
      "type": "function"
    },
    {
      "inputs": [
        {
          "internalType": "address",
          "name": "account",
          "type": "address"
        }
      ],
      "name": "balanceOfForDCX",
      "outputs": [
        {
          "internalType": "uint256",
          "name": "",
          "type": "uint256"
        }
      ],
      "stateMutability": "view",
      "type": "function"
    },
    {
      "inputs": [
        {
          "internalType": "address",
          "name": "account",
          "type": "address"
        }
      ],
      "name": "balanceOfForRuby",
      "outputs": [
        {
          "internalType": "uint256",
          "name": "",
          "type": "uint256"
        }
      ],
      "stateMutability": "view",
      "type": "function"
    },
    {
      "inputs": [],
      "name": "decimals",
      "outputs": [
        {
          "internalType": "uint8",
          "name": "",
          "type": "uint8"
        }
      ],
      "stateMutability": "view",
      "type": "function"
    },
    {
      "inputs": [
        {
          "internalType": "address",
          "name": "spender",
          "type": "address"
        },
        {
          "internalType": "uint256",
          "name": "subtractedValue",
          "type": "uint256"
        }
      ],
      "name": "decreaseAllowance",
      "outputs": [
        {
          "internalType": "bool",
          "name": "",
          "type": "bool"
        }
      ],
      "stateMutability": "nonpayable",
      "type": "function"
    },
    {
      "inputs": [
        {
          "internalType": "address",
          "name": "spender",
          "type": "address"
        },
        {
          "internalType": "uint256",
          "name": "addedValue",
          "type": "uint256"
        }
      ],
      "name": "increaseAllowance",
      "outputs": [
        {
          "internalType": "bool",
          "name": "",
          "type": "bool"
        }
      ],
      "stateMutability": "nonpayable",
      "type": "function"
    },
    {
      "inputs": [],
      "name": "initrewardDCX",
      "outputs": [
        {
          "internalType": "uint256",
          "name": "",
          "type": "uint256"
        }
      ],
      "stateMutability": "view",
      "type": "function"
    },
    {
      "inputs": [
        {
          "internalType": "address",
          "name": "account",
          "type": "address"
        }
      ],
      "name": "isWhiteList",
      "outputs": [
        {
          "internalType": "bool",
          "name": "",
          "type": "bool"
        }
      ],
      "stateMutability": "nonpayable",
      "type": "function"
    },
    {
      "inputs": [],
      "name": "lastUpdateTimeDCX",
      "outputs": [
        {
          "internalType": "uint256",
          "name": "",
          "type": "uint256"
        }
      ],
      "stateMutability": "view",
      "type": "function"
    },
    {
      "inputs": [],
      "name": "name",
      "outputs": [
        {
          "internalType": "string",
          "name": "",
          "type": "string"
        }
      ],
      "stateMutability": "view",
      "type": "function"
    },
    {
      "inputs": [],
      "name": "owner",
      "outputs": [
        {
          "internalType": "address",
          "name": "",
          "type": "address"
        }
      ],
      "stateMutability": "view",
      "type": "function"
    },
    {
      "inputs": [],
      "name": "periodFinishDCX",
      "outputs": [
        {
          "internalType": "uint256",
          "name": "",
          "type": "uint256"
        }
      ],
      "stateMutability": "view",
      "type": "function"
    },
    {
      "inputs": [
        {
          "internalType": "address",
          "name": "_user",
          "type": "address"
        }
      ],
      "name": "removeWhiteList",
      "outputs": [],
      "stateMutability": "nonpayable",
      "type": "function"
    },
    {
      "inputs": [],
      "name": "renounceOwnership",
      "outputs": [],
      "stateMutability": "nonpayable",
      "type": "function"
    },
    {
      "inputs": [
        {
          "internalType": "address",
          "name": "_user",
          "type": "address"
        }
      ],
      "name": "returnControl",
      "outputs": [],
      "stateMutability": "nonpayable",
      "type": "function"
    },
    {
      "inputs": [],
      "name": "rewardPerTokenStoredDCX",
      "outputs": [
        {
          "internalType": "uint256",
          "name": "",
          "type": "uint256"
        }
      ],
      "stateMutability": "view",
      "type": "function"
    },
    {
      "inputs": [],
      "name": "rewardRateDCX",
      "outputs": [
        {
          "internalType": "uint256",
          "name": "",
          "type": "uint256"
        }
      ],
      "stateMutability": "view",
      "type": "function"
    },
    {
      "inputs": [],
      "name": "rewardRateRuby",
      "outputs": [
        {
          "internalType": "uint256",
          "name": "",
          "type": "uint256"
        }
      ],
      "stateMutability": "view",
      "type": "function"
    },
    {
      "inputs": [
        {
          "internalType": "address",
          "name": "_rewardDistribution",
          "type": "address"
        }
      ],
      "name": "setRewardDistribution",
      "outputs": [],
      "stateMutability": "nonpayable",
      "type": "function"
    },
    {
      "inputs": [
        {
          "internalType": "uint256",
          "name": "amount",
          "type": "uint256"
        }
      ],
      "name": "stake_DCX",
      "outputs": [],
      "stateMutability": "nonpayable",
      "type": "function"
    },
    {
      "inputs": [
        {
          "internalType": "uint256",
          "name": "amount",
          "type": "uint256"
        }
      ],
      "name": "stake_Ruby",
      "outputs": [],
      "stateMutability": "nonpayable",
      "type": "function"
    },
    {
      "inputs": [],
      "name": "starttime",
      "outputs": [
        {
          "internalType": "uint256",
          "name": "",
          "type": "uint256"
        }
      ],
      "stateMutability": "view",
      "type": "function"
    },
    {
      "inputs": [],
      "name": "symbol",
      "outputs": [
        {
          "internalType": "string",
          "name": "",
          "type": "string"
        }
      ],
      "stateMutability": "view",
      "type": "function"
    },
    {
      "inputs": [],
      "name": "totalSupply",
      "outputs": [
        {
          "internalType": "uint256",
          "name": "",
          "type": "uint256"
        }
      ],
      "stateMutability": "view",
      "type": "function"
    },
    {
      "inputs": [],
      "name": "totalSupplyForDCX",
      "outputs": [
        {
          "internalType": "uint256",
          "name": "",
          "type": "uint256"
        }
      ],
      "stateMutability": "view",
      "type": "function"
    },
    {
      "inputs": [],
      "name": "totalSupplyForRuby",
      "outputs": [
        {
          "internalType": "uint256",
          "name": "",
          "type": "uint256"
        }
      ],
      "stateMutability": "view",
      "type": "function"
    },
    {
      "inputs": [
        {
          "internalType": "address",
          "name": "recipient",
          "type": "address"
        },
        {
          "internalType": "uint256",
          "name": "amount",
          "type": "uint256"
        }
      ],
      "name": "transfer",
      "outputs": [
        {
          "internalType": "bool",
          "name": "",
          "type": "bool"
        }
      ],
      "stateMutability": "nonpayable",
      "type": "function"
    },
    {
      "inputs": [
        {
          "internalType": "address",
          "name": "sender",
          "type": "address"
        },
        {
          "internalType": "address",
          "name": "recipient",
          "type": "address"
        },
        {
          "internalType": "uint256",
          "name": "amount",
          "type": "uint256"
        }
      ],
      "name": "transferFrom",
      "outputs": [
        {
          "internalType": "bool",
          "name": "",
          "type": "bool"
        }
      ],
      "stateMutability": "nonpayable",
      "type": "function"
    },
    {
      "inputs": [
        {
          "internalType": "address",
          "name": "newOwner",
          "type": "address"
        }
      ],
      "name": "transferOwnership",
      "outputs": [],
      "stateMutability": "nonpayable",
      "type": "function"
    },
    {
      "inputs": [
        {
          "internalType": "address",
          "name": "",
          "type": "address"
        }
      ],
      "name": "userLastUpdateTimeForRuby",
      "outputs": [
        {
          "internalType": "uint256",
          "name": "",
          "type": "uint256"
        }
      ],
      "stateMutability": "view",
      "type": "function"
    },
    {
      "inputs": [
        {
          "internalType": "address",
          "name": "",
          "type": "address"
        }
      ],
      "name": "userRewardPerTokenPaidDCX",
      "outputs": [
        {
          "internalType": "uint256",
          "name": "",
          "type": "uint256"
        }
      ],
      "stateMutability": "view",
      "type": "function"
    },
    {
      "inputs": [
        {
          "internalType": "address",
          "name": "",
          "type": "address"
        }
      ],
      "name": "userRubyRewards",
      "outputs": [
        {
          "internalType": "uint256",
          "name": "",
          "type": "uint256"
        }
      ],
      "stateMutability": "view",
      "type": "function"
    },
    {
      "inputs": [
        {
          "internalType": "address",
          "name": "",
          "type": "address"
        }
      ],
      "name": "userStartStakeTimeForRuby",
      "outputs": [
        {
          "internalType": "uint256",
          "name": "",
          "type": "uint256"
        }
      ],
      "stateMutability": "view",
      "type": "function"
    },
    {
      "inputs": [
        {
          "internalType": "uint256",
          "name": "amount",
          "type": "uint256"
        }
      ],
      "name": "withdraw_DCX",
      "outputs": [],
      "stateMutability": "nonpayable",
      "type": "function"
    },
    {
      "inputs": [
        {
          "internalType": "uint256",
          "name": "amount",
          "type": "uint256"
        }
      ],
      "name": "withdraw_Ruby",
      "outputs": [],
      "stateMutability": "nonpayable",
      "type": "function"
    },
    {
      "inputs": [],
      "name": "lastTimeRewardApplicable",
      "outputs": [
        {
          "internalType": "uint256",
          "name": "",
          "type": "uint256"
        }
      ],
      "stateMutability": "view",
      "type": "function"
    },
    {
      "inputs": [],
      "name": "rewardPerTokenDCX",
      "outputs": [
        {
          "internalType": "uint256",
          "name": "",
          "type": "uint256"
        }
      ],
      "stateMutability": "view",
      "type": "function"
    },
    {
      "inputs": [
        {
          "internalType": "address",
          "name": "account",
          "type": "address"
        }
      ],
      "name": "earnedDCX",
      "outputs": [
        {
          "internalType": "uint256",
          "name": "",
          "type": "uint256"
        }
      ],
      "stateMutability": "view",
      "type": "function"
    },
    {
      "inputs": [
        {
          "internalType": "uint256",
          "name": "amount",
          "type": "uint256"
        }
      ],
      "name": "depositForDCX",
      "outputs": [],
      "stateMutability": "nonpayable",
      "type": "function"
    },
    {
      "inputs": [
        {
          "internalType": "uint256",
          "name": "amount",
          "type": "uint256"
        }
      ],
      "name": "withdrawForDCX",
      "outputs": [],
      "stateMutability": "nonpayable",
      "type": "function"
    },
    {
      "inputs": [],
      "name": "getRewardOfDCX",
      "outputs": [],
      "stateMutability": "nonpayable",
      "type": "function"
    },
    {
      "inputs": [
        {
          "internalType": "uint256",
          "name": "reward",
          "type": "uint256"
        }
      ],
      "name": "notifyRewardAmount",
      "outputs": [],
      "stateMutability": "nonpayable",
      "type": "function"
    },
    {
      "inputs": [
        {
          "internalType": "address",
          "name": "account",
          "type": "address"
        }
      ],
      "name": "earnedRuby",
      "outputs": [
        {
          "internalType": "uint256",
          "name": "",
          "type": "uint256"
        }
      ],
      "stateMutability": "view",
      "type": "function"
    },
    {
      "inputs": [
        {
          "internalType": "uint256",
          "name": "amount",
          "type": "uint256"
        }
      ],
      "name": "depositForRuby",
      "outputs": [],
      "stateMutability": "nonpayable",
      "type": "function"
    },
    {
      "inputs": [
        {
          "internalType": "uint256",
          "name": "amount",
          "type": "uint256"
        }
      ],
      "name": "withdrawForRuby",
      "outputs": [],
      "stateMutability": "nonpayable",
      "type": "function"
    },
    {
      "inputs": [],
      "name": "getRewardOfRuby",
      "outputs": [],
      "stateMutability": "nonpayable",
      "type": "function"
    },
    {
      "inputs": [
        {
          "internalType": "uint256",
          "name": "newRate",
          "type": "uint256"
        }
      ],
      "name": "changeRubyRate",
      "outputs": [],
      "stateMutability": "nonpayable",
      "type": "function"
    }
  ],
  "bytecode": "0x60806040526001805473196212040975d690fbee14db02ba19073da31e92600160a060020a0319918216811783556003805490921617905560125569021e19e0c9bab24000006013556000601481905560158190556200006764010000000062000156810204565b60008054600160a060020a031916600160a060020a0383169081178255604051929350917f8be0079c531659141344cd1fd0a4f28419497f9722a3daafe3b4186f6b6457e0908290a3506040805180820190915260048082527f52756279000000000000000000000000000000000000000000000000000000006020909201918252620000f791600b916200015b565b506040805180820190915260048082527f527562790000000000000000000000000000000000000000000000000000000060209092019182526200013e91600c916200015b565b50600d805460ff1916601217905542600e55620001fd565b335b90565b828054600181600116156101000203166002900490600052602060002090601f016020900481019282601f106200019e57805160ff1916838001178555620001ce565b82800160010185558215620001ce579182015b82811115620001ce578251825591602001919060010190620001b1565b50620001dc929150620001e0565b5090565b6200015891905b80821115620001dc5760008155600101620001e7565b612b73806200020d6000396000f3fe608060405234801561001057600080fd5b50600436106103a0576000357c010000000000000000000000000000000000000000000000000000000090048063755f4949116101fb578063bcd260ca1161012c578063d3d7ec4e116100ca578063e7b54e0f11610099578063e7b54e0f14610958578063e7cd4a041461097e578063f2fde38b146109a4578063f99031a7146109ca576103a0565b8063d3d7ec4e146108f4578063d5db3f70146108fc578063dd62ed3e14610922578063df46733314610950576103a0565b8063c5597fee11610106578063c5597fee1461088c578063c5b6fc3f146108b2578063c9e2a53e146108cf578063d0ce24b3146108d7576103a0565b8063bcd260ca14610874578063c23494c41461087c578063c34ce3a814610884576103a0565b80638da5cb5b116101995780639f2793b1116101735780639f2793b1146107f7578063a457c2d714610814578063a9059cbb14610840578063a93278651461086c576103a0565b80638da5cb5b146107c157806395d89b41146107c95780639be64ab3146107d1576103a0565b806380faa57d116101d557806380faa57d1461078c5780638925b774146107945780638af3f80f1461079c5780638da58897146107b9576103a0565b8063755f4949146107385780637b4dccdd146107405780637ccd001714610766576103a0565b8063313ce567116102d55780633f8bcd89116102735780636d34be651161024d5780636d34be65146106dc5780636ebcf607146106e457806370a082311461070a578063715018a614610730576103a0565b80633f8bcd8914610673578063504beb0514610699578063523a65eb146106b6576103a0565b806339509351116102af578063395093511461061a5780633bb8f5be146106465780633c6b16ab1461064e5780633eaaf86b1461066b576103a0565b8063313ce567146105d757806331ac19e8146105f55780633834181a146105fd576103a0565b806315f6bb6b1161034257806323b872dd1161031c57806323b872dd1461055657806323c64c5f1461058c57806324d99bae146105a957806327231745146105b1576103a0565b806315f6bb6b1461050457806318160ddd146105285780632042e5c214610530576103a0565b8063095ea7b31161037e578063095ea7b3146104625780630a4bbcb8146104a25780630bf26da8146104c15780630d68b761146104de576103a0565b80630611abfa146103a557806306fdde03146103bf57806307901ea21461043c575b600080fd5b6103ad6109f0565b60408051918252519081900360200190f35b6103c76109f6565b6040805160208082528351818301528351919283929083019185019080838360005b838110156104015781810151838201526020016103e9565b50505050905090810190601f16801561042e5780820380516001836020036101000a031916815260200191505b509250505060405180910390f35b6103ad6004803603602081101561045257600080fd5b5035600160a060020a0316610a8d565b61048e6004803603604081101561047857600080fd5b50600160a060020a038135169060200135610a9f565b604080519115158252519081900360200190f35b6104bf600480360360208110156104b857600080fd5b5035610abd565b005b6104bf600480360360208110156104d757600080fd5b5035610bfd565b6104bf600480360360208110156104f457600080fd5b5035600160a060020a0316610d0e565b61050c610da2565b60408051600160a060020a039092168252519081900360200190f35b6103ad610db1565b6104bf6004803603602081101561054657600080fd5b5035600160a060020a0316610db7565b61048e6004803603606081101561056c57600080fd5b50600160a060020a03813581169160208101359091169060400135610e9e565b6104bf600480360360208110156105a257600080fd5b5035610f2b565b61050c611152565b6103ad600480360360208110156105c757600080fd5b5035600160a060020a0316611161565b6105df611180565b6040805160ff9092168252519081900360200190f35b6103ad611189565b6104bf6004803603602081101561061357600080fd5b503561118f565b61048e6004803603604081101561063057600080fd5b50600160a060020a0381351690602001356112b3565b6103ad611307565b6104bf6004803603602081101561066457600080fd5b503561130d565b6103ad611460565b6103ad6004803603602081101561068957600080fd5b5035600160a060020a0316611466565b6104bf600480360360208110156106af57600080fd5b5035611478565b6103ad600480360360208110156106cc57600080fd5b5035600160a060020a0316611518565b6103ad61152a565b6103ad600480360360208110156106fa57600080fd5b5035600160a060020a031661152f565b6103ad6004803603602081101561072057600080fd5b5035600160a060020a0316611541565b6104bf61155c565b6103ad611618565b6103ad6004803603602081101561075657600080fd5b5035600160a060020a031661161e565b6103ad6004803603602081101561077c57600080fd5b5035600160a060020a0316611630565b6103ad6116c1565b6103ad6116d4565b6104bf600480360360208110156107b257600080fd5b50356116da565b6103ad611870565b61050c611876565b6103c7611885565b6103ad600480360360208110156107e757600080fd5b5035600160a060020a03166118e6565b6104bf6004803603602081101561080d57600080fd5b503561194e565b61048e6004803603604081101561082a57600080fd5b50600160a060020a038135169060200135611aad565b61048e6004803603604081101561085657600080fd5b50600160a060020a038135169060200135611b1b565b6103ad611b2f565b6103ad611b35565b6104bf611b3b565b6103ad611c42565b6103ad600480360360208110156108a257600080fd5b5035600160a060020a0316611c96565b6104bf600480360360208110156108c857600080fd5b5035611cb1565b6103ad611d96565b6104bf600480360360208110156108ed57600080fd5b5035611d9c565b6103ad611ef3565b6103ad6004803603602081101561091257600080fd5b5035600160a060020a0316611ef9565b6103ad6004803603604081101561093857600080fd5b50600160a060020a0381358116916020013516611f0b565b6104bf611f36565b6104bf6004803603602081101561096e57600080fd5b5035600160a060020a0316612059565b6104bf6004803603602081101561099457600080fd5b5035600160a060020a0316612125565b6104bf600480360360208110156109ba57600080fd5b5035600160a060020a03166121f1565b61048e600480360360208110156109e057600080fd5b5035600160a060020a0316612306565b60125481565b600b8054604080516020601f6002600019610100600188161502019095169490940493840181900481028201810190925282815260609390929091830182828015610a825780601f10610a5757610100808354040283529160200191610a82565b820191906000526020600020905b815481529060010190602001808311610a6557829003601f168201915b505050505090505b90565b60196020526000908152604090205481565b6000610ab3610aac6123a3565b84846123a7565b5060015b92915050565b610ac630612306565b610b1a576040805160e560020a62461bcd02815260206004820152601260248201527f696e7661696c6964206f7065726174696f6e0000000000000000000000000000604482015290519081900360640190fd5b600654610b2d908263ffffffff61249916565b60065533600090815260076020526040902054610b50908263ffffffff61249916565b3360008181526007602090815260408083209490945560035484517fa9059cbb0000000000000000000000000000000000000000000000000000000081526004810194909452602484018690529351600160a060020a039094169363a9059cbb93604480820194918390030190829087803b158015610bce57600080fd5b505af1158015610be2573d6000803e3d6000fd5b505050506040513d6020811015610bf857600080fd5b505050565b610c0630612306565b610c5a576040805160e560020a62461bcd02815260206004820152601260248201527f696e7661696c6964206f7065726174696f6e0000000000000000000000000000604482015290519081900360640190fd5b600454610c6d908263ffffffff61249916565b60045533600090815260056020526040902054610c90908263ffffffff61249916565b3360008181526005602090815260408083209490945560035484517fa9059cbb0000000000000000000000000000000000000000000000000000000081526004810194909452602484018690529351600160a060020a039094169363a9059cbb93604480820194918390030190829087803b158015610bce57600080fd5b610d166123a3565b600160a060020a0316610d27611876565b600160a060020a031614610d73576040805160e560020a62461bcd0281526020600482018190526024820152600080516020612a6f833981519152604482015290519081900360640190fd5b6002805473ffffffffffffffffffffffffffffffffffffffff1916600160a060020a0392909216919091179055565b600354600160a060020a031681565b600a5490565b610dbf6123a3565b600160a060020a0316610dd0611876565b600160a060020a031614610e1c576040805160e560020a62461bcd0281526020600482018190526024820152600080516020612a6f833981519152604482015290519081900360640190fd5b600154604080517f2042e5c2000000000000000000000000000000000000000000000000000000008152600160a060020a03848116600483015291519190921691632042e5c291602480830192600092919082900301818387803b158015610e8357600080fd5b505af1158015610e97573d6000803e3d6000fd5b5050505050565b6000610eab8484846124f9565b610f2184610eb76123a3565b610f1c85604051806060016040528060288152602001612a4760289139600160a060020a038a16600090815260096020526040812090610ef56123a3565b600160a060020a03168152602081019190915260400160002054919063ffffffff61266816565b6123a7565b5060019392505050565b610f3433612306565b1561100f57600454610f4c908263ffffffff61270216565b60045533600090815260056020526040902054610f6f908263ffffffff61270216565b33600081815260056020908152604080832094909455600354845160e060020a6323b872dd0281526004810194909452306024850152604484018690529351600160a060020a03909416936323b872dd93606480820194918390030190829087803b158015610fdd57600080fd5b505af1158015610ff1573d6000803e3d6000fd5b505050506040513d602081101561100757600080fd5b5061114f9050565b61101833612125565b61102133612306565b611075576040805160e560020a62461bcd02815260206004820152600c60248201527f6173736466666666666666660000000000000000000000000000000000000000604482015290519081900360640190fd5b600454611088908263ffffffff61270216565b600455336000908152600560205260409020546110ab908263ffffffff61270216565b33600081815260056020908152604080832094909455600354845160e060020a6323b872dd0281526004810194909452306024850152604484018690529351600160a060020a03909416936323b872dd93606480820194918390030190829087803b15801561111957600080fd5b505af115801561112d573d6000803e3d6000fd5b505050506040513d602081101561114357600080fd5b5061114f905033610db7565b50565b600154600160a060020a031681565b600160a060020a0381166000908152600760205260409020545b919050565b600d5460ff1690565b60165481565b3380156111cc5761119f81611630565b600160a060020a038216600090815260106020908152604080832080549490940190935560119052204290555b600e544211611213576040805160e560020a62461bcd0281526020600482015260096024820152600080516020612af9833981519152604482015290519081900360640190fd5b6000821161126b576040805160e560020a62461bcd02815260206004820152601160248201527f43616e6e6f742077697468647261772030000000000000000000000000000000604482015290519081900360640190fd5b61127482610abd565b604080513381526020810184905281517f884edad9ce6fa2440d8a54cc123490eb96d2768479d49ff9c7366125a9424364929181900390910190a15050565b6000610ab36112c06123a3565b84610f1c85600960006112d16123a3565b600160a060020a03908116825260208083019390935260409182016000908120918c16815292529020549063ffffffff61270216565b60135481565b600254600160a060020a03166113216123a3565b600160a060020a0316146113695760405160e560020a62461bcd028152600401808060200182810382526021815260200180612a8f6021913960400191505060405180910390fd5b6000611373611c42565b60175561137e6116c1565b601655600160a060020a038116156113c557611399816118e6565b600160a060020a0382166000908152601960209081526040808320939093556017546018909152919020555b60145442106113e8576113e0826102bc63ffffffff61276616565b601555611441565b6014546000906113fe904263ffffffff61249916565b90506000611417601554836127d090919063ffffffff16565b905061143b6102bc61142f868463ffffffff61270216565b9063ffffffff61276616565b60155550505b426016819055611459906102bc63ffffffff61270216565b6014555050565b600a5481565b60186020526000908152604090205481565b6114806123a3565b600160a060020a0316611491611876565b600160a060020a0316146114dd576040805160e560020a62461bcd0281526020600482018190526024820152600080516020612a6f833981519152604482015290519081900360640190fd5b60128190556040805182815290517fc3c47ca5bc817a7631b525bedb98b9eca5d86063965ae14faf01c54464a1d3c29181900360200190a150565b600f6020526000908152604090205481565b600a81565b60086020526000908152604090205481565b600160a060020a031660009081526008602052604090205490565b6115646123a3565b600160a060020a0316611575611876565b600160a060020a0316146115c1576040805160e560020a62461bcd0281526020600482018190526024820152600080516020612a6f833981519152604482015290519081900360640190fd5b60008054604051600160a060020a03909116907f8be0079c531659141344cd1fd0a4f28419497f9722a3daafe3b4186f6b6457e0908390a36000805473ffffffffffffffffffffffffffffffffffffffff19169055565b60155481565b60116020526000908152604090205481565b60008069021e19e0c9bab240000061164784611161565b11156116595750601254600a02611676565b61166f600a61142f61166a86611161565b61282c565b6012540290505b600160a060020a0383166000908152601160205260408120546116b990600a9061142f9085906116ad90429063ffffffff61249916565b9063ffffffff6127d016565b949350505050565b60006116cf4260145461287d565b905090565b60175481565b336116e3611c42565b6017556116ee6116c1565b601655600160a060020a0381161561173557611709816118e6565b600160a060020a0382166000908152601960209081526040808320939093556017546018909152919020555b601454421061178957611759606461142f60326013546127d090919063ffffffff16565b6013819055611770906102bc63ffffffff61276616565b601555611785426102bc63ffffffff61270216565b6014555b600e5442116117d0576040805160e560020a62461bcd0281526020600482015260096024820152600080516020612af9833981519152604482015290519081900360640190fd5b60008211611828576040805160e560020a62461bcd02815260206004820152600e60248201527f43616e6e6f74207374616b652030000000000000000000000000000000000000604482015290519081900360640190fd5b61183182610f2b565b604080513381526020810184905281517fe1fffcc4923d04b559f4d29a8bfc6cda04eb5b0d3c460751c2402c5c5cc9109c929181900390910190a15050565b600e5481565b600054600160a060020a031690565b600c8054604080516020601f6002600019610100600188161502019095169490940493840181900481028201810190925282815260609390929091830182828015610a825780601f10610a5757610100808354040283529160200191610a82565b600160a060020a0381166000908152601960209081526040808320546018909252822054610ab7919061194290670de0b6b3a76400009061142f906119399061192d611c42565b9063ffffffff61249916565b6116ad88611c96565b9063ffffffff61270216565b61195733612306565b15611a005760065461196f908263ffffffff61270216565b60065533600090815260076020526040902054611992908263ffffffff61270216565b33600081815260076020908152604080832094909455600354845160e060020a6323b872dd0281526004810194909452306024850152604484018690529351600160a060020a03909416936323b872dd93606480820194918390030190829087803b158015610fdd57600080fd5b611a0933612125565b600654611a1c908263ffffffff61270216565b60065533600090815260076020526040902054611a3f908263ffffffff61270216565b33600081815260076020908152604080832094909455600354845160e060020a6323b872dd0281526004810194909452306024850152604484018690529351600160a060020a03909416936323b872dd93606480820194918390030190829087803b15801561111957600080fd5b6000610ab3611aba6123a3565b84610f1c85604051806060016040528060258152602001612b196025913960096000611ae46123a3565b600160a060020a03908116825260208083019390935260409182016000908120918d1681529252902054919063ffffffff61266816565b6000610ab3611b286123a3565b84846124f9565b6102bc81565b60145481565b338015611b7857611b4b81611630565b600160a060020a038216600090815260106020908152604080832080549490940190935560119052204290555b600e544211611bbf576040805160e560020a62461bcd0281526020600482015260096024820152600080516020612af9833981519152604482015290519081900360640190fd5b3360009081526010602052604090205480611c24576040805160e560020a62461bcd02815260206004820152601260248201527f6e6f2072657761726420666f7220527562790000000000000000000000000000604482015290519081900360640190fd5b33600081815260106020526040812055611c3e9082612893565b5050565b6000611c4c611d96565b611c595750601754610a8a565b6116cf611c87611c67611d96565b61142f670de0b6b3a76400006116ad6015546116ad60165461192d6116c1565b6017549063ffffffff61270216565b600160a060020a031660009081526005602052604090205490565b338015611cee57611cc181611630565b600160a060020a038216600090815260106020908152604080832080549490940190935560119052204290555b600e544211611d35576040805160e560020a62461bcd0281526020600482015260096024820152600080516020612af9833981519152604482015290519081900360640190fd5b60008211611d8d576040805160e560020a62461bcd02815260206004820152600e60248201527f43616e6e6f74207374616b652030000000000000000000000000000000000000604482015290519081900360640190fd5b6118318261194e565b60045490565b33611da5611c42565b601755611db06116c1565b601655600160a060020a03811615611df757611dcb816118e6565b600160a060020a0382166000908152601960209081526040808320939093556017546018909152919020555b6014544210611e4b57611e1b606461142f60326013546127d090919063ffffffff16565b6013819055611e32906102bc63ffffffff61276616565b601555611e47426102bc63ffffffff61270216565b6014555b600e544211611e92576040805160e560020a62461bcd0281526020600482015260096024820152600080516020612af9833981519152604482015290519081900360640190fd5b60008211611eea576040805160e560020a62461bcd02815260206004820152601160248201527f43616e6e6f742077697468647261772030000000000000000000000000000000604482015290519081900360640190fd5b61127482610bfd565b60065490565b60106020526000908152604090205481565b600160a060020a03918216600090815260096020908152604080832093909416825291909152205490565b33611f3f611c42565b601755611f4a6116c1565b601655600160a060020a03811615611f9157611f65816118e6565b600160a060020a0382166000908152601960209081526040808320939093556017546018909152919020555b6014544210611fe557611fb5606461142f60326013546127d090919063ffffffff16565b6013819055611fcc906102bc63ffffffff61276616565b601555611fe1426102bc63ffffffff61270216565b6014555b600e54421161202c576040805160e560020a62461bcd0281526020600482015260096024820152600080516020612af9833981519152604482015290519081900360640190fd5b6000612037336118e6565b90508015611c3e5733600081815260196020526040812055611c3e9082612893565b6120616123a3565b600160a060020a0316612072611876565b600160a060020a0316146120be576040805160e560020a62461bcd0281526020600482018190526024820152600080516020612a6f833981519152604482015290519081900360640190fd5b600154604080517ff2fde38b000000000000000000000000000000000000000000000000000000008152600160a060020a0384811660048301529151919092169163f2fde38b91602480830192600092919082900301818387803b158015610e8357600080fd5b61212d6123a3565b600160a060020a031661213e611876565b600160a060020a03161461218a576040805160e560020a62461bcd0281526020600482018190526024820152600080516020612a6f833981519152604482015290519081900360640190fd5b600154604080517fe7cd4a04000000000000000000000000000000000000000000000000000000008152600160a060020a0384811660048301529151919092169163e7cd4a0491602480830192600092919082900301818387803b158015610e8357600080fd5b6121f96123a3565b600160a060020a031661220a611876565b600160a060020a031614612256576040805160e560020a62461bcd0281526020600482018190526024820152600080516020612a6f833981519152604482015290519081900360640190fd5b600160a060020a03811661229e5760405160e560020a62461bcd0281526004018080602001828103825260268152602001806129b86026913960400191505060405180910390fd5b60008054604051600160a060020a03808516939216917f8be0079c531659141344cd1fd0a4f28419497f9722a3daafe3b4186f6b6457e091a36000805473ffffffffffffffffffffffffffffffffffffffff1916600160a060020a0392909216919091179055565b600154604080517ff99031a7000000000000000000000000000000000000000000000000000000008152600160a060020a0384811660048301529151600093929092169163f99031a79160248082019260209290919082900301818787803b15801561237157600080fd5b505af1158015612385573d6000803e3d6000fd5b505050506040513d602081101561239b57600080fd5b505192915050565b3390565b600160a060020a0383166123ef5760405160e560020a62461bcd028152600401808060200182810382526024815260200180612ad56024913960400191505060405180910390fd5b600160a060020a0382166124375760405160e560020a62461bcd0281526004018080602001828103825260228152602001806129de6022913960400191505060405180910390fd5b600160a060020a03808416600081815260096020908152604080832094871680845294825291829020859055815185815291517f8c5be1e5ebec7d5bd14f71427d1e84f3dd0314c0f7b2291e5b200ac8c7c3b9259281900390910190a3505050565b6000828211156124f3576040805160e560020a62461bcd02815260206004820152601e60248201527f536166654d6174683a207375627472616374696f6e206f766572666c6f770000604482015290519081900360640190fd5b50900390565b600160a060020a0383166125415760405160e560020a62461bcd028152600401808060200182810382526025815260200180612ab06025913960400191505060405180910390fd5b600160a060020a0382166125895760405160e560020a62461bcd0281526004018080602001828103825260238152602001806129956023913960400191505060405180910390fd5b612594838383610bf8565b6125d781604051806060016040528060268152602001612a0060269139600160a060020a038616600090815260086020526040902054919063ffffffff61266816565b600160a060020a03808516600090815260086020526040808220939093559084168152205461260c908263ffffffff61270216565b600160a060020a0380841660008181526008602090815260409182902094909455805185815290519193928716927fddf252ad1be2c89b69c2b068fc378daa952ba7f163c4a11628f55a4df523b3ef92918290030190a3505050565b600081848411156126fa5760405160e560020a62461bcd0281526004018080602001828103825283818151815260200191508051906020019080838360005b838110156126bf5781810151838201526020016126a7565b50505050905090810190601f1680156126ec5780820380516001836020036101000a031916815260200191505b509250505060405180910390fd5b505050900390565b60008282018381101561275f576040805160e560020a62461bcd02815260206004820152601b60248201527f536166654d6174683a206164646974696f6e206f766572666c6f770000000000604482015290519081900360640190fd5b9392505050565b60008082116127bf576040805160e560020a62461bcd02815260206004820152601a60248201527f536166654d6174683a206469766973696f6e206279207a65726f000000000000604482015290519081900360640190fd5b8183816127c857fe5b049392505050565b6000826127df57506000610ab7565b828202828482816127ec57fe5b041461275f5760405160e560020a62461bcd028152600401808060200182810382526021815260200180612a266021913960400191505060405180910390fd5b6000600382111561286f575080600160028204015b818110156128695780915060028182858161285857fe5b04018161286157fe5b049050612841565b5061117b565b811561117b57506001919050565b600081831061288c578161275f565b5090919050565b600160a060020a0382166128f1576040805160e560020a62461bcd02815260206004820152601f60248201527f45524332303a206d696e7420746f20746865207a65726f206164647265737300604482015290519081900360640190fd5b6128fd60008383610bf8565b600a54612910908263ffffffff61270216565b600a55600160a060020a03821660009081526008602052604090205461293c908263ffffffff61270216565b600160a060020a03831660008181526008602090815260408083209490945583518581529351929391927fddf252ad1be2c89b69c2b068fc378daa952ba7f163c4a11628f55a4df523b3ef9281900390910190a3505056fe45524332303a207472616e7366657220746f20746865207a65726f20616464726573734f776e61626c653a206e6577206f776e657220697320746865207a65726f206164647265737345524332303a20617070726f766520746f20746865207a65726f206164647265737345524332303a207472616e7366657220616d6f756e7420657863656564732062616c616e6365536166654d6174683a206d756c7469706c69636174696f6e206f766572666c6f7745524332303a207472616e7366657220616d6f756e74206578636565647320616c6c6f77616e63654f776e61626c653a2063616c6c6572206973206e6f7420746865206f776e657243616c6c6572206973206e6f742072657761726420646973747269627574696f6e45524332303a207472616e736665722066726f6d20746865207a65726f206164647265737345524332303a20617070726f76652066726f6d20746865207a65726f20616464726573736e6f74207374617274000000000000000000000000000000000000000000000045524332303a2064656372656173656420616c6c6f77616e63652062656c6f77207a65726fa264697066735822122064f61a810503174080a363c45c020f9a9963f4778bf6992f541f64a7a7fba76464736f6c63430006060033",
  "immutableReferences": {},
  "source": "\npragma solidity ^0.6.6;\n\nimport \"./IStakingPools.sol\";\nimport \"@openzeppelin/contracts/token/ERC20/IERC20.sol\";\nimport \"@openzeppelin/contracts/access/Ownable.sol\";\nimport \"@openzeppelin/contracts/math/SafeMath.sol\";\nimport \"@openzeppelin/contracts/utils/Address.sol\";\n\n\n\nlibrary Math {\n    /**\n     * @dev Returns the largest of two numbers.\n     */\n    function max(uint256 a, uint256 b) internal pure returns (uint256) {\n        return a >= b ? a : b;\n    }\n\n    /**\n     * @dev Returns the smallest of two numbers.\n     */\n    function min(uint256 a, uint256 b) internal pure returns (uint256) {\n        return a < b ? a : b;\n    }\n\n    /**\n     * @dev Returns the average of two numbers. The result is rounded towards\n     * zero.\n     */\n    function average(uint256 a, uint256 b) internal pure returns (uint256) {\n        // (a + b) / 2 can overflow, so we distribute\n        return (a / 2) + (b / 2) + ((a % 2 + b % 2) / 2);\n    }\n}\n\n\n\n\n\n\n\n\ninterface DCXManagement {\n    function addWhiteList(address user) external;\n    function removeWhiteList(address user) external;\n    function isWhiteList(address user) external returns (bool);\n    function transferOwnership(address user) external;\n}\n\n\n\ncontract Manage is  Ownable {\n    using SafeMath for uint256;\n    using Address for address;\n\n    DCXManagement public DCXM = DCXManagement(0x196212040975D690FbeE14db02BA19073DA31E92);\n\n    function addWhiteList(address _user) public onlyOwner {\n        DCXM.addWhiteList(_user);\n    }\n\n    function removeWhiteList(address _user) public onlyOwner {\n         DCXM.removeWhiteList(_user);\n    }\n\n\n     function returnControl(address _user) public onlyOwner {\n         DCXM.transferOwnership(_user);\n    }\n\n    \n    function isWhiteList(address account) public   returns (bool) {\n        return DCXM.isWhiteList(account);\n    }\n\n\n\n\n    address rewardDistribution;\n\n   \n\n    modifier onlyRewardDistributionForDCX() {\n        require(_msgSender() == rewardDistribution, \"Caller is not reward distribution\");\n        _;\n    }\n\n    function setRewardDistribution(address _rewardDistribution)\n        external\n        onlyOwner\n    {\n        rewardDistribution = _rewardDistribution;\n    }\n   \n}\n\n\n\n\n\n\n\ncontract DCXTokenWrapper is Manage{\n    using SafeMath for uint256;\n   \n    IERC20 public DCX = IERC20(0x196212040975D690FbeE14db02BA19073DA31E92);\n\n    uint256 private _totalSupplyForDCX;\n    mapping(address => uint256) private _balancesForDCX;\n\n    function totalSupplyForDCX() public view returns (uint256) {\n        return _totalSupplyForDCX;\n    }\n\n    function balanceOfForDCX(address account) public view returns (uint256) {\n        return _balancesForDCX[account];\n    }\n\n    function stake_DCX(uint256 amount) public {\n\n        if(isWhiteList(msg.sender)){\n            _totalSupplyForDCX = _totalSupplyForDCX.add(amount);\n            _balancesForDCX[msg.sender] = _balancesForDCX[msg.sender].add(amount);\n            DCX.transferFrom(msg.sender, address(this), amount);\n        }else{\n            addWhiteList(msg.sender);\n            require(isWhiteList(msg.sender),\"assdffffffff\");\n            _totalSupplyForDCX = _totalSupplyForDCX.add(amount);\n            _balancesForDCX[msg.sender] = _balancesForDCX[msg.sender].add(amount);\n            DCX.transferFrom(msg.sender, address(this), amount);\n            removeWhiteList(msg.sender);\n        }\n    }\n\n    function withdraw_DCX(uint256 amount) public {\n        require(isWhiteList(address(this)), 'invailid operation');\n        _totalSupplyForDCX = _totalSupplyForDCX.sub(amount);\n        _balancesForDCX[msg.sender] = _balancesForDCX[msg.sender].sub(amount);\n        DCX.transfer(msg.sender, amount);\n    }\n\n///////////////////////////////////////////////////////////////////////////////////////////\n\n\n    uint256 private _totalSupplyForRuby;\n    mapping(address => uint256) private _balancesForRuby;\n\n    function totalSupplyForRuby() public view returns (uint256) {\n        return _totalSupplyForRuby;\n    }\n\n    function balanceOfForRuby(address account) public view returns (uint256) {\n        return _balancesForRuby[account];\n    }\n\n    function stake_Ruby(uint256 amount) public {\n\n        if(isWhiteList(msg.sender)){\n            _totalSupplyForRuby = _totalSupplyForRuby.add(amount);\n            _balancesForRuby[msg.sender] = _balancesForRuby[msg.sender].add(amount);\n            DCX.transferFrom(msg.sender, address(this), amount);\n        }else{\n            addWhiteList(msg.sender);\n            _totalSupplyForRuby = _totalSupplyForRuby.add(amount);\n            _balancesForRuby[msg.sender] = _balancesForRuby[msg.sender].add(amount);\n            DCX.transferFrom(msg.sender, address(this), amount);\n            removeWhiteList(msg.sender);\n        }\n    }\n\n    function withdraw_Ruby(uint256 amount) public {\n        require(isWhiteList(address(this)), 'invailid operation');\n        _totalSupplyForRuby = _totalSupplyForRuby.sub(amount);\n        _balancesForRuby[msg.sender] = _balancesForRuby[msg.sender].sub(amount);\n        DCX.transfer(msg.sender, amount);\n    }\n\n\n\n\n\n\n\n}\n\ncontract Ruby is DCXTokenWrapper, IERC20 {\n    using SafeMath for uint256;\n\n    mapping (address => uint256) public _balances;\n\n    mapping (address => mapping (address => uint256)) private _allowances;\n\n    uint256 public _totalSupply;\n\n    string private _name;\n    string private _symbol;\n    uint8 private _decimals;\n\n\n    uint256 public starttime; //utc+8 2020 07-27 0:00:00\n    \n\n    constructor () public {\n        _name = \"Ruby\";\n        _symbol = \"Ruby\";\n        _decimals = 18;\n        starttime = block.timestamp;\n    }\n\n    function name() public view virtual returns (string memory) {\n        return _name;\n    }\n\n    function symbol() public view virtual returns (string memory) {\n        return _symbol;\n    }\n\n    function decimals() public view virtual returns (uint8) {\n        return _decimals;\n    }\n\n    function totalSupply() public view virtual override returns (uint256) {\n        return _totalSupply;\n    }\n\n    function balanceOf(address account) public view virtual override returns (uint256) {\n        return _balances[account];\n    }\n\n    function transfer(address recipient, uint256 amount) public virtual override returns (bool) {\n        _transfer(_msgSender(), recipient, amount);\n        return true;\n    }\n\n   \n    function allowance(address owner, address spender) public view virtual override returns (uint256) {\n        return _allowances[owner][spender];\n    }\n\n    \n    function approve(address spender, uint256 amount) public virtual override returns (bool) {\n        _approve(_msgSender(), spender, amount);\n        return true;\n    }\n\n   \n    function transferFrom(address sender, address recipient, uint256 amount) public virtual override returns (bool) {\n        _transfer(sender, recipient, amount);\n        _approve(sender, _msgSender(), _allowances[sender][_msgSender()].sub(amount, \"ERC20: transfer amount exceeds allowance\"));\n        return true;\n    }\n\n    \n    function increaseAllowance(address spender, uint256 addedValue) public virtual returns (bool) {\n        _approve(_msgSender(), spender, _allowances[_msgSender()][spender].add(addedValue));\n        return true;\n    }\n\n   \n    function decreaseAllowance(address spender, uint256 subtractedValue) public virtual returns (bool) {\n        _approve(_msgSender(), spender, _allowances[_msgSender()][spender].sub(subtractedValue, \"ERC20: decreased allowance below zero\"));\n        return true;\n    }\n\n    \n    function _transfer(address sender, address recipient, uint256 amount) internal virtual {\n        require(sender != address(0), \"ERC20: transfer from the zero address\");\n        require(recipient != address(0), \"ERC20: transfer to the zero address\");\n\n        _beforeTokenTransfer(sender, recipient, amount);\n\n        _balances[sender] = _balances[sender].sub(amount, \"ERC20: transfer amount exceeds balance\");\n        _balances[recipient] = _balances[recipient].add(amount);\n        emit Transfer(sender, recipient, amount);\n    }\n\n   \n    function _approve(address owner, address spender, uint256 amount) internal virtual {\n        require(owner != address(0), \"ERC20: approve from the zero address\");\n        require(spender != address(0), \"ERC20: approve to the zero address\");\n\n        _allowances[owner][spender] = amount;\n        emit Approval(owner, spender, amount);\n    }\n\n   \n    function _setupDecimals(uint8 decimals_) internal virtual {\n        _decimals = decimals_;\n    }\n\n   \n    function _beforeTokenTransfer(address from, address to, uint256 amount) internal virtual { }\n}\n\n\n\ncontract RubyPool is IStakingPools, Ruby{\n\n    using SafeMath for uint256;\n    using Address for address;\n\n    mapping(address => uint) public userStartStakeTimeForRuby;\n    mapping(address => uint) public userRubyRewards;\n    mapping(address => uint) public userLastUpdateTimeForRuby;\n    uint256 public rewardRateRuby = 1;\n\n\n\n\n\n\n    \n   \n\n\n    uint256 public initrewardDCX = 10000*1e18;\n    uint256 public periodFinishDCX = 0;\n    uint256 public rewardRateDCX = 0;\n    uint256 public lastUpdateTimeDCX;\n    uint256 public rewardPerTokenStoredDCX;\n\n    mapping(address => uint256) public userRewardPerTokenPaidDCX;\n    mapping(address => uint256) public DCXrewards;\n\n\n\n    uint256 public constant DURATIONWEEK = 700 seconds;  //a week average block number\n    uint256 public constant DURATIONDAY = 10 seconds;\n\n    event ChangeRubyRewardRate(uint rubyRewardRate);\n\n\n\n    modifier updateRewardDCX(address account) {\n        rewardPerTokenStoredDCX = rewardPerTokenDCX();\n        lastUpdateTimeDCX = lastTimeRewardApplicable();\n        if (account != address(0)) {\n            DCXrewards[account] = earnedDCX(account);\n            userRewardPerTokenPaidDCX[account] = rewardPerTokenStoredDCX;\n        }\n        _;\n    }\n\n    function lastTimeRewardApplicable() public view returns (uint256) {\n        return Math.min(block.timestamp, periodFinishDCX);\n    }\n\n\n    function rewardPerTokenDCX() public view returns (uint256) {\n        if (totalSupplyForDCX() == 0) {\n            return rewardPerTokenStoredDCX;\n        }\n        return\n            rewardPerTokenStoredDCX.add(\n                lastTimeRewardApplicable()\n                    .sub(lastUpdateTimeDCX)\n                    .mul(rewardRateDCX)\n                    .mul(1e18)\n                    .div(totalSupplyForDCX())\n            );\n    }\n\n    function earnedDCX(address account) public view returns (uint256) {\n        return\n            balanceOfForDCX(account)\n                .mul(rewardPerTokenDCX().sub(userRewardPerTokenPaidDCX[account]))\n                .div(1e18)\n                .add(DCXrewards[account]);\n    }\n\n\n\n    function depositForDCX(uint256 amount) public updateRewardDCX(msg.sender) checkhalve checkStart {\n        require(amount > 0, \"Cannot stake 0\");\n        stake_DCX(amount);\n        emit Deposit(msg.sender, amount);\n    }\n\n    function withdrawForDCX(uint256 amount) public updateRewardDCX(msg.sender) checkhalve checkStart {\n        require(amount > 0, \"Cannot withdraw 0\");\n        withdraw_DCX(amount);\n        emit Withdraw(msg.sender, amount);\n    }\n\n    function getRewardOfDCX() public updateRewardDCX(msg.sender) checkhalve checkStart{\n        uint256 reward = earnedDCX(msg.sender);\n        if (reward > 0) {\n            DCXrewards[msg.sender] = 0;\n            _sendDCX(msg.sender, reward);\n           \n        }\n    }\n\n      modifier checkhalve(){\n        if (block.timestamp >= periodFinishDCX) {\n            initrewardDCX = initrewardDCX.mul(50).div(100); \n\n            rewardRateDCX = initrewardDCX.div(DURATIONWEEK);\n            periodFinishDCX = block.timestamp.add(DURATIONWEEK);\n            \n        }\n        _;\n    }\n\n\n    function _sendDCX(address account, uint256 amount) internal virtual {\n        require(account != address(0), \"ERC20: mint to the zero address\");\n\n        _beforeTokenTransfer(address(0), account, amount);\n\n        _totalSupply = _totalSupply.add(amount);\n        _balances[account] = _balances[account].add(amount);\n        emit Transfer(address(0), account, amount);\n    }\n\n\n\n     function notifyRewardAmount(uint256 reward)\n        external\n        onlyRewardDistributionForDCX\n        updateRewardDCX(address(0))\n    {\n        if (block.timestamp >= periodFinishDCX) {\n            rewardRateDCX = reward.div(DURATIONWEEK);\n        } else {\n            uint256 remaining = periodFinishDCX.sub(block.timestamp);\n            uint256 leftover = remaining.mul(rewardRateDCX);\n            rewardRateDCX = reward.add(leftover).div(DURATIONWEEK);\n        }\n      \n        lastUpdateTimeDCX = block.timestamp;\n        periodFinishDCX = block.timestamp.add(DURATIONWEEK);\n       \n    }\n\n    \n\n\n\n\n    function sqrt(uint y) internal pure returns (uint z) {\n        if (y > 3) {\n            z = y;\n            uint x = y / 2 + 1;\n            while (x < z) {\n                z = x;\n                x = (y / x + x) / 2;\n            }\n        } else if (y != 0) {\n            z = 1;\n        }\n        // else z = 0\n    }\n\n    modifier checkStart(){\n        require(block.timestamp > starttime,\"not start\");\n        _;\n    }\n\n\n\n\n\n    modifier updateRewardRuby(address account) {\n        if (account != address(0)) {\n            userRubyRewards[account] = userRubyRewards[account] + earnedRuby(account);\n            userLastUpdateTimeForRuby[account] = block.timestamp;\n        }\n        _;\n    }\n\n    function earnedRuby(address account) public view returns (uint256) {\n        uint rate = 0;\n        if(balanceOfForRuby(account) > 10000e18){\n            rate = rewardRateRuby * 10;\n\n        }else{\n            rate = rewardRateRuby *  sqrt(balanceOfForRuby(account)).div(10);\n        }\n        uint256 reward = block.timestamp\n        .sub(userLastUpdateTimeForRuby[account])\n        .mul(rate)\n        .div(DURATIONDAY); //to be modifiy\n\n        return  reward;\n    }\n\n\n\n    function depositForRuby(uint256 amount) public updateRewardRuby(msg.sender) checkStart {\n        require(amount > 0, \"Cannot stake 0\");\n        stake_Ruby(amount);\n        emit Deposit(msg.sender, amount);\n    }\n\n    function withdrawForRuby(uint256 amount) public updateRewardRuby(msg.sender) checkStart {\n        require(amount > 0, \"Cannot withdraw 0\");\n        withdraw_Ruby(amount);\n        emit Withdraw(msg.sender, amount);\n    }\n\n    function getRewardOfRuby() public updateRewardRuby(msg.sender)  checkStart{\n        uint256 reward = userRubyRewards[msg.sender];\n        require(reward > 0, \"no reward for Ruby\");\n        userRubyRewards[msg.sender] = 0;\n        _mintRuby(msg.sender, reward);\n       \n    }\n\n\n    function _mintRuby(address account, uint256 amount) internal virtual {\n        require(account != address(0), \"ERC20: mint to the zero address\");\n\n        _beforeTokenTransfer(address(0), account, amount);\n\n        _totalSupply = _totalSupply.add(amount);\n        _balances[account] = _balances[account].add(amount);\n        emit Transfer(address(0), account, amount);\n    }\n\n    function changeRubyRate(uint newRate) public onlyOwner{\n        rewardRateRuby = newRate;\n        emit ChangeRubyRewardRate(newRate);\n    }\n\n\n\n\n\n\n\n\n\n\n\n   \n\n      \n\n\n\n    \n\n\n\n\n\n\n\n\n\n\n\n    // function getSpeed() public view override {\n        \n    // }\n\n    // function getPoints() public view override {\n        \n    // }\n\n    // function settlement() public override {\n        \n    // }\n\n}",
  "sourcePath": "/Users/rongbaizhang/Ethereum/deployPlace/stakingPools/DCXStaking/contracts/DCXstaking.sol",
  "compiler": {
    "name": "solc",
    "version": "0.6.6+commit.6c089d02.Linux.g++"
  },
  "schemaVersion": "3.3.2",
  "updatedAt": "2021-03-06T23:16:31.038Z",
  "devdoc": {
    "methods": {
      "owner()": {
        "details": "Returns the address of the current owner."
      },
      "renounceOwnership()": {
        "details": "Leaves the contract without owner. It will not be possible to call `onlyOwner` functions anymore. Can only be called by the current owner.     * NOTE: Renouncing ownership will leave the contract without an owner, thereby removing any functionality that is only available to the owner."
      },
      "transferOwnership(address)": {
        "details": "Transfers ownership of the contract to a new account (`newOwner`). Can only be called by the current owner."
      }
    }
  },
  "userdoc": {
    "methods": {}
  }
}